{
  "contractName": "ContadorFactory",
  "abi": [
    {
      "constant": true,
      "inputs": [
        {
          "name": "",
          "type": "uint256"
        }
      ],
      "name": "contadores",
      "outputs": [
        {
          "name": "",
          "type": "address"
        }
      ],
      "payable": false,
      "stateMutability": "view",
      "type": "function",
      "signature": "0xf3be827d"
    },
    {
      "constant": false,
      "inputs": [],
      "name": "createContador",
      "outputs": [],
      "payable": false,
      "stateMutability": "nonpayable",
      "type": "function",
      "signature": "0x1abd1161"
    },
    {
      "constant": true,
      "inputs": [],
      "name": "getContadores",
      "outputs": [
        {
          "name": "",
          "type": "address[]"
        }
      ],
      "payable": false,
      "stateMutability": "view",
      "type": "function",
      "signature": "0xac3cfc25"
    },
    {
      "constant": true,
      "inputs": [],
      "name": "getNumOfContadores",
      "outputs": [
        {
          "name": "",
          "type": "uint256"
        }
      ],
      "payable": false,
      "stateMutability": "view",
      "type": "function",
      "signature": "0x3dd672f2"
    }
  ],
  "bytecode": "0x608060405234801561001057600080fd5b50610505806100206000396000f3fe608060405260043610610062576000357c0100000000000000000000000000000000000000000000000000000000900463ffffffff1680631abd1161146100675780633dd672f21461007e578063ac3cfc25146100a9578063f3be827d14610115575b600080fd5b34801561007357600080fd5b5061007c610190565b005b34801561008a57600080fd5b50610093610228565b6040518082815260200191505060405180910390f35b3480156100b557600080fd5b506100be610234565b6040518080602001828103825283818151815260200191508051906020019060200280838360005b838110156101015780820151818401526020810190506100e6565b505050509050019250505060405180910390f35b34801561012157600080fd5b5061014e6004803603602081101561013857600080fd5b81019080803590602001909291905050506102c2565b604051808273ffffffffffffffffffffffffffffffffffffffff1673ffffffffffffffffffffffffffffffffffffffff16815260200191505060405180910390f35b600061019a610300565b604051809103906000f0801580156101b6573d6000803e3d6000fd5b509050600081905060008190806001815401808255809150509060018203906000526020600020016000909192909190916101000a81548173ffffffffffffffffffffffffffffffffffffffff021916908373ffffffffffffffffffffffffffffffffffffffff160217905550505050565b60008080549050905090565b606060008054806020026020016040519081016040528092919081815260200182805480156102b857602002820191906000526020600020905b8160009054906101000a900473ffffffffffffffffffffffffffffffffffffffff1673ffffffffffffffffffffffffffffffffffffffff168152602001906001019080831161026e575b5050505050905090565b6000818154811015156102d157fe5b906000526020600020016000915054906101000a900473ffffffffffffffffffffffffffffffffffffffff1681565b6040516101c9806103118339019056fe608060405234801561001057600080fd5b5060008060006101000a81548160ff021916908360ff16021790555061018e8061003b6000396000f3fe60806040526004361061004c576000357c0100000000000000000000000000000000000000000000000000000000900463ffffffff168063119fbbd414610051578063ecbac7cf14610068575b600080fd5b34801561005d57600080fd5b50610066610099565b005b34801561007457600080fd5b5061007d610150565b604051808260ff1660ff16815260200191505060405180910390f35b60008081819054906101000a900460ff168092919060010191906101000a81548160ff021916908360ff160217905550507f278733a8e0534f74d81486a11876429bb0d35a6968fa576ec403ad7aecfa2e6e6000809054906101000a900460ff1660405180806020018360ff1660ff1681526020018281038252600b8152602001807f41637475616c697a61646f0000000000000000000000000000000000000000008152506020019250505060405180910390a1565b6000809054906101000a900460ff168156fea165627a7a723058206a89d9be4a447bbea179a9afebf194a7dd2ec7d4742738a27d7d79755c348a390029a165627a7a723058206fd241f30261de242f9cf1e307478cbee78a7a168af995143ad7a57ce2615b4d0029",
  "source": "pragma solidity >=0.4.17 <=6.0.0;\n\ncontract ContadorFactory {\n    \n  address[] public contadores;\n   \n  function createContador() public {\n    Contador newContador = new Contador(); \n    address a = address(newContador);\n    contadores.push(a);   \n  }\n   \n  function getContadores() public view returns (address[] memory) {\n    return contadores;\n  }\n\n  function getNumOfContadores() public view returns (uint) {\n       return contadores.length;\n   }\n   \n}\n\ncontract Contador {\n    \n  uint8 public valor;\n    \n  event Tic(string msg, uint8 out);\n    \n  constructor() public {\n    valor = 0;\n  }\n        \n  function incr() public {\n    valor++;\n    emit Tic(\"Actualizado\", valor);\n  }\n}",
  "sourcePath": "/Users/Rodri/Desktop/pruebaDrizzle/contracts/ContadorFactory.sol",
  "compiler": {
    "name": "solc",
    "version": "0.5.0+commit.1d4f565a.Emscripten.clang"
  },
  "schemaVersion": "3.0.2",
  "updatedAt": "2019-03-26T12:00:38.506Z",
  "devdoc": {
    "methods": {}
  },
  "userdoc": {
    "methods": {}
  }
}