{
  "contractName": "Contador",
  "abi": [
    {
      "constant": true,
      "inputs": [],
      "name": "valor",
      "outputs": [
        {
          "name": "",
          "type": "uint8"
        }
      ],
      "payable": false,
      "stateMutability": "view",
      "type": "function",
      "signature": "0xecbac7cf"
    },
    {
      "inputs": [],
      "payable": false,
      "stateMutability": "nonpayable",
      "type": "constructor",
      "signature": "constructor"
    },
    {
      "anonymous": false,
      "inputs": [
        {
          "indexed": false,
          "name": "msg",
          "type": "string"
        },
        {
          "indexed": false,
          "name": "out",
          "type": "uint8"
        }
      ],
      "name": "Tic",
      "type": "event",
      "signature": "0x278733a8e0534f74d81486a11876429bb0d35a6968fa576ec403ad7aecfa2e6e"
    },
    {
      "constant": false,
      "inputs": [],
      "name": "incr",
      "outputs": [],
      "payable": false,
      "stateMutability": "nonpayable",
      "type": "function",
      "signature": "0x119fbbd4"
    }
  ],
  "bytecode": "0x608060405234801561001057600080fd5b5060008060006101000a81548160ff021916908360ff16021790555061018e8061003b6000396000f3fe60806040526004361061004c576000357c0100000000000000000000000000000000000000000000000000000000900463ffffffff168063119fbbd414610051578063ecbac7cf14610068575b600080fd5b34801561005d57600080fd5b50610066610099565b005b34801561007457600080fd5b5061007d610150565b604051808260ff1660ff16815260200191505060405180910390f35b60008081819054906101000a900460ff168092919060010191906101000a81548160ff021916908360ff160217905550507f278733a8e0534f74d81486a11876429bb0d35a6968fa576ec403ad7aecfa2e6e6000809054906101000a900460ff1660405180806020018360ff1660ff1681526020018281038252600b8152602001807f41637475616c697a61646f0000000000000000000000000000000000000000008152506020019250505060405180910390a1565b6000809054906101000a900460ff168156fea165627a7a723058206a89d9be4a447bbea179a9afebf194a7dd2ec7d4742738a27d7d79755c348a390029",
  "source": "pragma solidity >=0.4.17 <=6.0.0;\n\ncontract ContadorFactory {\n    \n  address[] public contadores;\n   \n  function createContador() public {\n    Contador newContador = new Contador(); \n    address a = address(newContador);\n    contadores.push(a);   \n  }\n   \n  function getContadores() public view returns (address[] memory) {\n    return contadores;\n  }\n\n  function getNumOfContadores() public view returns (uint) {\n       return contadores.length;\n   }\n   \n}\n\ncontract Contador {\n    \n  uint8 public valor;\n    \n  event Tic(string msg, uint8 out);\n    \n  constructor() public {\n    valor = 0;\n  }\n        \n  function incr() public {\n    valor++;\n    emit Tic(\"Actualizado\", valor);\n  }\n}",
  "sourcePath": "/Users/Rodri/Desktop/pruebaDrizzle/contracts/ContadorFactory.sol",
  "compiler": {
    "name": "solc",
    "version": "0.5.0+commit.1d4f565a.Emscripten.clang"
  },
  "schemaVersion": "3.0.2",
  "updatedAt": "2019-03-26T12:00:38.505Z",
  "devdoc": {
    "methods": {}
  },
  "userdoc": {
    "methods": {}
  }
}